:040000000CEF00F011
:10000800FACF03F0FBCF04F0E9CF05F057ED20F06D
:10001800C7EF22F0DC0E0101806F000E0101816F35
:100028001EEF06F0250E01019519D8B406D001017E
:100038009551C5EC28F01EEF06F0000E0101896FFE
:10004800000E886F000E0101916F000E906F07D0AF
:10005800010190850001DA4BDB2B01D00BD0DAC00F
:10006800F6FFDBC0F7FF0800F550300AD8B4F0D728
:1000780001D0F5D7DAC0F6FFDBC0F7FF0800F5506E
:1000880034EC27F0D8A04DD0000E0101896F000E86
:10009800886F00D088C111F089C112F0000E146E6B
:1000A8000A0E136EC4EC26F011C088F112C089F153
:1000B800D00E0001E86FFF0E0001E96FDAC0F6FF0D
:1000C800DBC0F7FF0800F5500001EA6FEB6B000199
:1000D800E8510001EA270001E9510001EB23000182
:1000E800EA51010188270001EB5101018923000130
:1000F800DA4BDB2BDAC0F6FFDBC0F7FF0800F55060
:1001080034EC27F0D8A00DD0C5D70BD02FEF06F0D0
:100118000101918524D00101908F21D01EEF06F0B6
:100128001ED0DAC0F6FFDBC0F7FF0001DA4BDB2B8D
:100138000800F5CF95F101019551000AD8B42FEFC9
:1001480006F0640AD8B40BD0020AD8B4E1D70F0A73
:10015800D8B405D0110AD8B4DED71EEF06F0070EC2
:1001680001019115D8B49AD3000E0101836F060ED0
:10017800826F80C1D9FF81C1DAFFDECF92F1DECF75
:1001880093F1DDCF94F1030E01018027000E812346
:10019800010194AF12D092C111F093C112F094C131
:1001A80013F0FEEC26F011C092F112C093F113C0C7
:1001B80094F1030E0101901300D0000E01018B6F22
:1001C800000E8A6F010192510101931101019411EE
:1001D800D8B493D0820E0001E86FFF0E0001E96FDA
:1001E80092C1EAF093C1EBF094C1ECF095C1EDF047
:1001F800100E06D00001D890ED33EC33EB33EA3320
:10020800E82EF8D70001EA510001E82501018A6FBC
:10021800000E0001E92101018B6F01018A07D8A0B6
:100228008B078AC111F08BC112F0000E146E030EF9
:10023800136EC4EC26F011C08AF112C08BF18AC18A
:1002480017F08BC118F0000E1A6E0A0E196E2DECFD
:100258001FF017C08AF118C08BF101018BAF05D0D0
:1002680001018A07D8A08B0700D001018A51000834
:1002780041EC09F043C084F144C085F145C086F1E2
:1002880084C11FF085C120F086C121F092C122F0FF
:1002980093C123F094C124F08BEC17F01FC084F1B4
:1002A80020C085F121C086F184C111F085C112F00A
:1002B80086C113F0000E146E800E156E3F0E166E7A
:1002C80078EC1FF0D8B005D001018A07D8A08B07B9
:1002D80014D084C111F085C112F086C113F0000E4C
:1002E800146E200E156E410E166E78EC1FF0D8A015
:1002F80004D001018A4B8B2B00D0010183BF08D0A9
:10030800010183511EE10D0E0101825DD8B019D0A3
:1003180092C14DF093C14EF094C14FF0010182514A
:100328001CEC0EF043C050F044C051F045C052F0F0
:1003380021EC10F04DC092F14EC093F14FC094F1F2
:1003480000D001018BBF08D001018B5128E10A0EB2
:1003580001018A5DD8B023D00101925101019311A6
:1003680001019411D8B477D092C12EF093C12FF027
:1003780094C130F0E3EC19F02E502F1030103110EA
:10038800D8A469D001018BBF66D001018B5107E168
:10039800020E01018A5DD8B002D05DD000D084C1C0
:1003A80011F085C112F086C113F0700E146E890E1B
:1003B800156E400E166E78EC1FF0D8B003D0010110
:1003C800F70E02D00101F80E8A27FF0E8B2300D00A
:1003D80001018A5141EC09F043C084F144C085F120
:1003E80045C086F117D092C111F093C112F094C1A3
:1003F80013F084C114F085C115F086C116F006EC1F
:1004080017F011C08CF112C08DF113C08EF114C019
:100418008FF117D092C111F093C112F094C113F06B
:1004280084C114F085C115F086C116F070EC15F082
:1004380011C08CF112C08DF113C08EF114C08FF170
:1004480000D0000E0101926F000E0101936F000EA3
:100458000101946F34D092C12EF093C12FF094C152
:1004680030F0E3EC19F02EC08CF12FC08DF130C0C4
:100478008EF131C08FF192C159F093C15AF094C1F5
:100488005BF08CC119F08DC11AF08EC11BF08FC1C1
:100498001CF029EC23F019C05CF01AC05DF01BC0F9
:1004A8005EF027EC25F059C092F15AC093F15BC079
:1004B80094F1000E01018B6F000E8A6F00D0010EBF
:1004C8000101956F0A0E01019519D8B422D001D007
:1004D80020D001019551040D120EF324F66EFE0E84
:1004E800F420F76E0900F55001018C5D0900F55004
:1004F80001018D590900F55001018E590900F55087
:1005080001018F59D8A005D001D003D00101952B46
:10051800D9D795C1E8F00001E96BE8BFE907010107
:1005280082510001E827010183510001E9230101FB
:100538008A510001E82701018B510001E9230001DC
:10054800E8510101885F0001E9510101895B01015E
:10055800825101018311D8B405D001018807D8A0C0
:10056800890700D0030E010190150001E86F000E05
:10057800010191150001E96F0001E8510001E9113D
:10058800D8B405D001018807D8A0890700D0010197
:1005980090A531D0030E010190150001E86F000EFF
:1005A800010191150001E96F0001E8510001E9110D
:1005B800D8B40CD02D0EC5EC28F008D0300EC5EC00
:1005C80028F001018807D8A0890700D0010189BF58
:1005D80077D001018951F2E101018805D8A070D0D6
:1005E800EDD76ED008D0200EC5EC28F001018807A1
:1005F800D8A0890700D0010189BF07D0010189511E
:10060800F2E101018805D8B0EED7030E010190157B
:100618000001E86F000E010191150001E96F00016A
:10062800E8510001E911D8B44BD02D0EC5EC28F0E3
:1006380047D08CC111F08DC112F08EC113F08FC15B
:1006480014F001019551040D120EF324F66EFE0EFE
:10065800F420F76E0900F5CF15F00900F5CF16F074
:100668000900F5CF17F00A00F5CF18F09FEC20F03D
:1006780011C084F112C085F113C086F114C087F14E
:1006880084C11EF085C11FF086C120F087C121F00A
:100698000A0E226E000E236E000E246E000E256ECA
:1006A80024EC22F01EC084F11FC085F120C086F121
:1006B80021C087F101018451300FC5EC28F000D02A
:1006C8000101950701019529D8B40AD0B2D708D0FD
:1006D800300EC5EC28F001018A07D8A08B0700D09E
:1006E80001018BBF07D001018B51F2E101018A059D
:1006F800D8B0EED7010183BF0CD00101835105E1C9
:10070800090E0101825DD8A004D0080E0101956F81
:1007180003D082C195F100D0010195510101825F9A
:10072800000E010195BFFF0E0101835B0101955188
:100738000101D8B404D02E0EC5EC28F000D0010178
:10074800955141EC09F043C07CF144C07DF145C0AE
:100758007EF192C122F093C123F094C124F07CC1B0
:100768001FF07DC120F07EC121F08BEC17F01FC077
:100778002EF020C02FF021C030F0E3EC19F02EC08D
:100788008CF12FC08DF130C08EF131C08FF16ED059
:100798008CC111F08DC112F08EC113F08FC114F00D
:1007A80001019551040D120EF324F66EFE0EF4208D
:1007B800F76E0900F5CF15F00900F5CF16F009001E
:1007C800F5CF17F00A00F5CF18F09FEC20F011C014
:1007D80084F112C085F113C086F114C087F184C179
:1007E8001EF085C11FF086C120F087C121F00A0ED6
:1007F800226E000E236E000E246E000E256E24EC71
:1008080022F01EC084F11FC085F120C086F121C0EE
:1008180087F101018451300FC5EC28F08CC11EF01E
:100828008DC11FF08EC120F08FC121F001019551BB
:10083800040D120EF324F66EFE0EF420F76E090076
:10084800F5CF22F00900F5CF23F00900F5CF24F009
:100858000A00F5CF25F024EC22F01EC08CF11FC051
:100868008DF120C08EF121C08FF100D001019507D4
:1008780001019529D8B40AD08BD708D0300EC5EC21
:1008880028F001018207D8A0830700D00101825116
:1008980001018311D8B4CED1F1D7CCD1010190BFD9
:1008A80023D080C1D9FF81C1DAFFDECF8CF1DDCF43
:1008B8008DF10101000E8DBFFF0E8E6F8F6F020E3E
:1008C80001018027000E812301018FAF78D0030E2C
:1008D8000101901301018F1F8E1F8D1F8C6D000E5B
:1008E8008D238E238F236BD080C1D9FF81C1DAFF7E
:1008F800DECFE8F0DDCFE9F0E8C08CF1E9C08DF19A
:1009080001018E6B8F6B020E01018027000E81237F
:1009180056D0010E0101956F0A0E01019519D8B440
:1009280058D001D056D001019551040D120EF32470
:10093800F66EFE0EF420F76E0900F55001018C5D8D
:100948000900F55001018D590900F55001018E5932
:100958000900F55001018F59D8A03BD001D039D0FA
:100968000101952BD9D735D0010E0101956F080EDD
:1009780001019519D8B42DD001D02BD00101955182
:10098800040D880EF324F66EFE0EF420F76E0900AF
:10099800F55001018C5D0900F55001018D590900E0
:1009A800F55001018E590900F55001018F59D8A061
:1009B80010D001D00ED00101952BD9D70AD0010152
:1009C8009051800B000AD8B4A4D7800AD8B4CCD7E9
:1009D80000D00101885101018911D8B415D0030E46
:1009E800010190150001E86F000E01019115000149
:1009F800E96F0001E8510001E911D8B405D00101FF
:100A08008807D8A0890700D0800E010195BF7F0E06
:100A18000001E86F010188510101955D01018951CB
:100A2800800A0001E859D8B00BD0010195510101A5
:100A3800885F000E010195BFFF0E0101895B06D09A
:100A4800000E0101896F000E886F00D0010190A58A
:100A580029D0030E010190150001E86F000E010175
:100A680091150001E96F0001E8510001E911D8B4BE
:100A780004D02D0EC5EC28F000D0010188510101E9
:100A88008911D8B438D0300EC5EC28F00101880798
:100A9800D8A089070101885101018911D8B42BD048
:100AA800F2D729D00101885101018911D8B40FD09A
:100AB800200EC5EC28F001018807D8A0890701019C
:100AC800885101018911D8B402D0F2D700D0030EA1
:100AD800010190150001E86F000E01019115000158
:100AE800E96F0001E8510001E911D8B404D02D0ED6
:100AF800C5EC28F000D0010195510101826F836B8C
:100B080082BF83078AD07AD082C1E8F083C1E9F036
:100B18000001D890E837E9370001D890E837E9377D
:100B2800120E0001E825F66EFE0EE921F76E0900A7
:100B3800F5CF15F00900F5CF16F00900F5CF17F03D
:100B48000A00F5CF18F08CC111F08DC112F08EC1DA
:100B580013F08FC114F09FEC20F011C01EF012C0EA
:100B68001FF013C020F014C021F00A0E226E000EF0
:100B7800236E000E246E000E256E24EC22F01E500B
:100B8800300F0101956F44D08CC111F08DC112F066
:100B98008EC113F08FC114F082C1E8F083C1E9F06F
:100BA8000001D890E837E9370001D890E837E937ED
:100BB800880E0001E825F66EFE0EE921F76E0900A1
:100BC800F5CF15F00900F5CF16F00900F5CF17F0AD
:100BD8000A00F5CF18F09FEC20F011500F0B01011F
:100BE8007F6F01017F51010D420EF324F66EFF0E57
:100BF800F420F76E0800F5CF95F10AD00101905165
:100C0800800B000AD8B480D7800AD8B4BDD700D0EA
:100C180001019551C5EC28F000D001018207D8A048
:100C2800830701018229EAE101018329D8B402D0AE
:100C3800E5D700D0DAC0F6FFDBC0F7FF0001DA4BDA
:100C4800DB2B0800F5CF95F101019551D8B403D0FD
:100C580016EF00F000D01200000189AF20D02D0E51
:100C68000001D06F000189517F0B0008800F4E6E84
:100C78004EC017F0186A000E1A6E0A0E196E2DEC87
:100C88001FF01750300F0001D16F4EC03DF03E6A83
:100C9800000E406E0A0E3F6E29EC21F01BD02B0E81
:100CA8000001D06F89C017F08AC018F0000E1A6EC4
:100CB8000A0E196E2DEC1FF01750300F0001D16F7E
:100CC80089C03DF08AC03EF0000E406E0A0E3F6EAD
:100CD80029EC21F03D50300F0001D26F00D0000107
:100CE8008CAF2ED02D0E0001D46F7F0E00018B1516
:100CF8004A6E000E00018C154B6E4A1E4B1E4A4A66
:100D08004B2A800E4A244C6E000E4B204D6E4CC070
:100D180017F04DC018F0000E1A6E0A0E196E2DEC61
:100D28001FF01750300F0001D56F4CC03DF04DC07B
:100D38003EF0000E406E0A0E3F6E29EC21F01BD0EB
:100D48002B0E0001D46F8BC017F08CC018F0000E6A
:100D58001A6E0A0E196E2DEC1FF01750300F000195
:100D6800D56F8BC03DF08CC03EF0000E406E0A0E71
:100D78003F6E29EC21F03D50300F0001D66F00D0B6
:100D88006A380F0B300F0101686F6A500F0B300F74
:100D98000101696F6B380F0B300F01016B6F6B50DE
:100DA8000F0B300F01016C6F6D380F0B300F010105
:100DB8006E6F6D500F0B300F01016F6F6C380F0B9A
:100DC800300F0101446F6C500F0B300F0101456F5C
:100DD80067380F0B300F0101476F67500F0B300F4B
:100DE8000101486F6F380F0B300F01014A6F6F50C8
:100DF8000F0B300F01014B6F64380F0B300F0101DF
:100E08003B6F64500F0B300F01013C6F65380F0BBF
:100E1800300F01013E6F65500F0B300F01013F6F1E
:100E280066380F0B300F0101416F66500F0B300F02
:100E38000101426F0001870500018811D8A40BD079
:100E4800C40E116E000E126EE90E136EFF0E146EB4
:100E580051EC26F00BD0C40E116E000E126EED0E82
:100E6800136EFF0E146E51EC26F000D0B7C017F0C9
:100E7800186A000E1A6E640E196E2DEC1FF01750CA
:100E8800300F0001BA6F000E1A6E0A0E196EB7C045
:100E980017F0186A2DEC1FF017C03DF018C03EF08F
:100EA800000E406E0A0E3F6E29EC21F03D50300FC7
:100EB8000001BB6FB7C03DF03E6A000E406E0A0EDF
:100EC8003F6E29EC21F03D50300F0001BC6F00014E
:100ED8009D05D8A40BD0CC0E116E000E126EE90E33
:100EE800136EFF0E146E51EC26F00BD0CC0E116E63
:100EF800000E126EED0E136EFF0E146E51EC26F0FE
:100F080000D081B402D0310E01D0300E0001D86F6C
:100F180000D068C017F0186A000E1A6E640E196EB9
:100F28002DEC1FF01750300F0001C86F000E1A6E1D
:100F38000A0E196E68C017F0186A2DEC1FF017C05A
:100F48003DF018C03EF0000E406E0A0E3F6E29ECD0
:100F580021F03D50300F0001C96F68C03DF03E6A76
:100F6800000E406E0A0E3F6E29EC21F03D50300F06
:100F78000001CA6F84C02EF085C02FF086C030F003
:100F8800E3EC19F02E50300F0101716F000E226E44
:100F9800200E236E410E246E84C01FF085C020F001
:100FA80086C021F08BEC17F01FC02EF020C02FF068
:100FB80021C030F0E3EC19F02EC03DF02FC03EF018
:100FC800000E406E0A0E3F6E29EC21F03D50300FA6
:100FD8000101736F000E226EC80E236E420E246E3E
:100FE80084C01FF085C020F086C021F08BEC17F07C
:100FF8001FC02EF020C02FF021C030F0E3EC19F014
:101008002EC03DF02FC03EF0000E406E0A0E3F6E1F
:1010180029EC21F03D50300F0101746F99C017F091
:101028009AC018F0030E1A6EE80E196E2DEC1FF018
:101038001750300F0001BF6F000E1A6E640E196E44
:1010480099C017F09AC018F02DEC1FF017C03DF0AA
:1010580018C03EF0000E406E0A0E3F6E29EC21F0DB
:101068003D50300F0001C06F000E1A6E0A0E196E47
:1010780099C017F09AC018F02DEC1FF017C03DF07A
:1010880018C03EF0000E406E0A0E3F6E29EC21F0AB
:101098003D50300F0001C16F99C03DF09AC03EF03D
:1010A800000E406E0A0E3F6E29EC21F03D50300FC5
:1010B8000001C26F170E396ED00E3A6E000E3B6EED
:1010C800070E3D6E3C68000E3F6E000E3E6E020E2F
:1010D800406E010EC7EC1AF0170E396ED40E3A6E38
:1010E800000E3B6E070E3D6E3C68000E3F6E000E14
:1010F8003E6E020E406E460EC7EC1AF0340E396E84
:10110800680E3A6E010E3B6EFF0E3D6EE00E3C6EB1
:10111800000E3F6E000E3E6E020E406E0F0EC7ECC4
:101128001AF0520E396E440E3A6E010E3B6E070EDF
:101138003D6EE00E3C6E000E3F6E000E3E6E020EDF
:10114800406E0F0EC7EC1AF06E0E396E3B0E3A6EFB
:10115800010E3B6EFF0E3D6EE00E3C6E000E3F6EC4
:10116800000E3E6E010E406E0A0EC7EC1AF06E0EAF
:10117800396EC40E3A6E000E3B6EFF0E3D6EE00EE9
:101188003C6E000E3F6E000E3E6E010E406E5F0E0E
:10119800C7EC1AF0820E396EBA0E3A6E000E3B6E2C
:1011A800000E3D6E1F0E3C6E000E3F6E000E3E6E32
:1011B800010E406E230EC7EC1AF0820E396ECC0E6B
:1011C8003A6E000E3B6E000E3D6E1F0E3C6E000E1A
:1011D8003F6E000E3E6E010E406E5F0EC7EC1AF0B9
:1011E800960E396EC80E3A6E000E3B6E070E3D6EB7
:1011F800E00E3C6E000E3F6E000E3E6E010E406E1D
:101208000A0EC7EC1AF0960E396ED80E3A6E000E1A
:101218003B6E070E3D6EE00E3C6E000E3F6E000EFC
:101228003E6E010E406E230EC7EC1AF0960E396E14
:10123800710E3A6E010E3B6E070E3D6EE00E3C6E6F
:10124800000E3F6E000E3E6E010E406E320EC7EC71
:101258001AF0960E396EBF0E3A6E000E3B6E070EF0
:101268003D6EE00E3C6E000E3F6E000E3E6E010EAF
:10127800406E5D0EC7EC1AF01200496E49AEEFD011
:10128800496C4950800A120FD8A08DD0000E146EF8
:10129800030E136E000E1A6E0A0E196E000E406EC3
:1012A800640E3F6E49503D6E3E6A3DBE3E0629ECD7
:1012B80021F03DC017F03EC018F02DEC1FF0090ECC
:1012C8001724116E000E1820126EC4EC26F03A0E88
:1012D8001124F66EFE0E1220F76E0900F5CF22F0EB
:1012E8000900F5CF23F00A00F5CF24F0000E1A6E9E
:1012F800640E196E4950176E186A17BE18062DEC41
:101308001FF0120E1724116E000E1820126E000E18
:10131800146E030E136EC4EC26F03A0E1124F66E0A
:10132800FE0E1220F76E0900F5CF1FF00900F5CF69
:1013380020F00A00F5CF21F08BEC17F01FC046F023
:1013480020C047F021C048F046C01FF047C020F039
:1013580048C021F0000E146E030E136E000E406E8E
:101368000A0E3F6E49503D6E3E6A3DBE3E0629EC70
:1013780021F03DC011F03EC012F0C4EC26F03A0E48
:101388001124F66EFE0E1220F76E0900F5CF22F03A
:101398000900F5CF23F00A00F5CF24F08BEC17F005
:1013A80041D15AD154D04950800A750FD8A04FD096
:1013B800000E1A6E0A0E196E4950176E186A17BE7B
:1013C80018062DEC1FF0090E1724116E000E1820B8
:1013D800126E000E146E030E136EC4EC26F03A0E55
:1013E8001124F66EFE0E1220F76E0900F5CF1FF0DD
:1013F8000900F5CF20F00A00F5CF21F0000E146E99
:10140800030E136E000E406E0A0E3F6E49503D6E7D
:101418003E6A3DBE3E0629EC21F03DC011F03EC0BB
:1014280012F0C4EC26F03A0E1124F66EFE0E1220CD
:10143800F76E0900F5CF22F00900F5CF23F00A0076
:10144800F5CF24F08BEC17F0EDD006D100D0495041
:10145800030D3A0EF324F66EFE0EF2D0FDD049507D
:10146800800A120FD8A08DD0000E146E030E136ED2
:10147800000E1A6E0A0E196E000E406E640E3F6E54
:1014880049503D6E3E6A3DBE3E0629EC21F03DC006
:1014980017F03EC018F02DEC1FF0090E1724116E3E
:1014A800000E1820126EC4EC26F0610E1124F66EA0
:1014B800FE0E1220F76E0900F5CF22F00900F5CFD5
:1014C80023F00A00F5CF24F0000E1A6E640E196E90
:1014D8004950176E186A17BE18062DEC1FF0120E29
:1014E8001724116E000E1820126E000E146E030ED3
:1014F800136EC4EC26F0610E1124F66EFE0E122057
:10150800F76E0900F5CF1FF00900F5CF20F00A00AB
:10151800F5CF21F08BEC17F01FC046F020C047F044
:1015280021C048F046C01FF047C020F048C021F055
:10153800000E146E030E136E000E406E0A0E3F6E00
:1015480049503D6E3E6A3DBE3E0629EC21F03DC045
:1015580011F03EC012F0C4EC26F0610E1124F66EB4
:10156800FE0E1220F76E0900F5CF22F00900F5CF24
:1015780023F00A00F5CF24F08BEC17F053D06CD091
:1015880059D04950800A750FD8A054D0000E1A6E51
:101598000A0E196E4950176E186A17BE18062DECF8
:1015A8001FF0090E1724116E000E1820126E000E7F
:1015B800146E030E136EC4EC26F0610E1124F66E41
:1015C800FE0E1220F76E0900F5CF1FF00900F5CFC7
:1015D80020F00A00F5CF21F0000E146E030E136EF2
:1015E800000E406E0A0E3F6E49503D6E3E6A3DBE8B
:1015F8003E0629EC21F03DC011F03EC012F0C4ECCB
:1016080026F0610E1124F66EFE0E1220F76E090008
:10161800F5CF22F00900F5CF23F00A00F5CF24F02A
:101628008BEC17F01FC043F020C044F021C045F0F8
:1016380013D000D04950030D610EF324F66EFE0E50
:10164800F420F76E0900F5CF43F00900F5CF44F018
:101658000A00F5CF45F000D0120067EC28F099ECAD
:1016680026F0000E256E000E246EB4EC27F062C042
:1016780011F063C012F01D0E136EFF0E146E51ECC4
:1016880026F0010E396E62C03AF063C03BF0FF0EDF
:101698003D6E3C68000E3F6E000E3E6E010E406EC1
:1016A800010EC7EC1AF062C011F063C012F0630EAD
:1016B800136EFF0E146E51EC26F00B0E396E62C0DD
:1016C8003AF063C03BF0F80E3D6E1F0E3C6E000E04
:1016D8003F6E000E3E6E010E406E180EC7EC1AF0FB
:1016E800000E1D6E280E1C6E000E1F6E170E1E6E4D
:1016F800000E216E020E206E070E236E2268E3ECA8
:1017080011F062C011F063C012F0F50E136EFF0EF7
:10171800146E51EC26F0170E396E62C03AF063C0B1
:101728003BF0070E3D6E3C68000E3F6E000E3E6EAD
:10173800020E406E2D0EC7EC1AF062C011F063C0A5
:1017480012F0EF0E136EFF0E146E51EC26F0000E21
:101758001D6E6E0E1C6E000E1F6E170E1E6E000E96
:10176800216E020E206E070E236E2268E3EC11F044
:10177800170E396E62C03AF063C03BF0070E3D6E3B
:101788003C68000E3F6E000E3E6E020E406E730EF9
:10179800C7EC1AF062C011F063C012F0A50E136E08
:1017A800FF0E146E51EC26F0280E396E62C03AF026
:1017B80063C03BF0F80E3D6E000E3C6E000E3F6EAF
:1017C800000E3E6E010E406E320EC7EC1AF062C07B
:1017D80011F063C012F0DF0E136EFF0E146E51ECA1
:1017E80026F0470E396E62C03AF063C03BF0000E37
:1017F8003D6E1F0E3C6E000E3F6E000E3E6E010EDB
:10180800406E320EC7EC1AF062C011F063C012F0DD
:101818009F0E136EFF0E146E51EC26F0640E396E97
:1018280062C03AF063C03BF0070E3D6E3C68000EA4
:101838003F6E000E3E6E010E406E040EC7EC1AF0AD
:1018480062C011F063C012F0BF0E136EFF0E146E6B
:1018580051EC26F0640E396E62C03AF063C03BF07A
:10186800070E3D6E3C68000E3F6E000E3E6E010E88
:10187800406E4D0EC7EC1AF062C011F063C012F052
:10188800700E136EFF0E146E51EC26F0780E396E42
:1018980062C03AF063C03BF0F80E3D6E000E3C6E3D
:1018A800000E3F6E000E3E6E010E406E060EC7EC37
:1018B8001AF062C011F063C012F0D80E136EFF0E5A
:1018C800146E51EC26F0780E396E62C03AF063C09F
:1018D8003BF0F80E3D6E000E3C6E000E3F6E000EA3
:1018E8003E6E010E406E550EC7EC1AF062C011F044
:1018F80063C012F0F80E136EFF0E146E51EC26F052
:101908008C0E396E62C03AF063C03BF0FF0E3D6E3C
:101918003C68000E3F6E000E3E6E010E406E0C0ECF
:10192800C7EC1AF062C011F063C012F0FB0E136E20
:10193800FF0E146E51EC26F08C0E396E62C03AF030
:1019480063C03BF0FF0E3D6E3C68000E3F6E000E1C
:101958003E6E010E406E210EC7EC1AF062C011F007
:1019680063C012F0E40E136EFF0E146E51EC26F0F5
:101978008C0E396E62C03AF063C03BF0FF0E3D6ECC
:101988003C68000E3F6E000E3E6E010E406E320E39
:10199800C7EC1AF062C011F063C012F0F10E136EBA
:1019A800FF0E146E51EC26F08C0E396E62C03AF0C0
:1019B80063C03BF0FF0E3D6E3C68000E3F6E000EAC
:1019C8003E6E010E406E5F0EC7EC1AF0120059EC25
:1019D80023F031EC0BF065EC24F0B7EC24F00001B7
:1019E800B869070E1EEC26F000D094EC22F06D507A
:1019F8000001B819D8B4C9D06DC0B8F049EC25F0C9
:101A08001FC099F020C09AF0E8EC21F03DC084F0A6
:101A18003EC085F03FC086F0E3EC25F014C089F0A5
:101A280015C08AF0000189AF1DD089C0F2F08AC0C4
:101A3800F3F00001F21FF31FF24BF32B800E0001AD
:101A4800F227000EF3237F0E0001F217000EF317A2
:101A58000001F21FF31FF24BF32BF2C089F0F3C021
:101A68008AF000D089C011F08AC012F0000E146EFE
:101A7800090E136EC4EC26F011C017F012C018F04E
:101A8800000E1A6E050E196E2DEC1FF0200E17248D
:101A980000018B6F000E182000018C6FA80E00014A
:101AA800DA6FFE0E0001DB6F6AC0DCF00001DD6B4F
:101AB8006BC0DEF00001DF6B6DC0E0F00001E16B90
:101AC8006CC0E2F00001E36B67C0E4F00001E56B75
:101AD8006FC0E6F00001E76B0EEC00F0F40E0001B9
:101AE800DA6FFE0E0001DB6F89C0DCF08AC0DDF022
:101AF8008BC0DEF08CC0DFF00EEC00F0C60E0001EB
:101B0800DA6FFE0E0001DB6F81A404D00001F26BD6
:101B1800F22B02D00001F26B0001F2510001DC6FE0
:101B2800DD6B9DC0DEF00001DF6B0EEC00F0AA0E4D
:101B38000001DA6FFF0E0001DB6F84C0DCF085C0A6
:101B4800DDF086C0DEF00EEC00F0090E0001DA6F61
:101B5800FF0E0001DB6F99C0DCF09AC0DDF068C0B1
:101B6800DEF00001DF6B0EEC00F099C01FF09AC0A8
:101B780020F0F8EC22F0685001EC26F082EC26F018
:101B88006EEC19F030EC06F000D00DEC20F0E80611
:101B9800D8A42CD0000E0001986F000E976F17D0B4
:101BA8002DEC28F0A6EC1BF021D02DEC28F0D5EC7C
:101BB8001CF01CD02DEC28F0C3EC1FF017D02DEC36
:101BC80028F003EC28F012D037EC28F00FD0695039
:101BD800000AD8B4E5D7010AD8B4E7D7030AD8B4BD
:101BE800E9D7070AD8B4EBD7EFD700D000019E0594
:101BF800D8A414D0000E00019E6F00018751000187
:101C08008811D8A405D0000E0001886F010E04D0F9
:101C1800000E0001886F000E876F00D000019F053D
:101C2800D8A4E3D6000E00019F6FDFD60CEF00F0BA
:101C38004C6E6D0E4C649BD0000E146E030E136E2A
:101C4800000E1A6E0A0E196E000E406E640E3F6E7C
:101C58004CC03DF03E6A29EC21F03DC017F03EC073
:101C680018F02DEC1FF0090E1724116E000E182025
:101C7800126EC4EC26F03A0E1124F66EFE0E1220F7
:101C8800F76E0900F5CF22F00900F5CF23F00A001E
:101C9800F5CF24F0000E1A6E640E196E4CC017F0C2
:101CA800186A2DEC1FF0120E1724116E000E182062
:101CB800126E000E146E030E136EC4EC26F03A0E6C
:101CC8001124F66EFE0E1220F76E0900F5CF1FF0F4
:101CD8000900F5CF20F00A00F5CF21F08BEC17F0C2
:101CE8001FC049F020C04AF021C04BF0000E146E0E
:101CF800030E136E000E406E0A0E3F6E4CC03DF090
:101D08003E6A29EC21F03DC011F03EC012F0C4EC4F
:101D180026F03A0E1124F66EFE0E1220F76E090018
:101D2800F5CF22F00900F5CF23F00A00F5CF24F013
:101D380049C01FF04AC020F04BC021F08BEC17F0CF
:101D48001FC046F020C047F021C048F046C01FF031
:101D580047C020F048C021F0000E226E000E236E0E
:101D68003F0E246E8BEC17F07DD083D062D00A0E24
:101D78004C645FD0000E146E030E136E000E406E9E
:101D88000A0E3F6E4CC03DF03E6A29EC21F03DC082
:101D980011F03EC012F0C4EC26F03A0E1124F66E93
:101DA800FE0E1220F76E0900F5CF22F00900F5CFDC
:101DB80023F00A00F5CF24F0000E1A6E0A0E196EF1
:101DC8004CC017F0186A2DEC1FF0090E1724116E7D
:101DD800000E1820126E000E146E030E136EC4EC63
:101DE80026F03A0E1124F66EFE0E1220F76E090048
:101DF800F5CF1FF00900F5CF20F00A00F5CF21F04C
:101E08008BEC17F01FC049F020C04AF021C04BF0FE
:101E180049C01FF04AC020F04BC021F0000E226ECE
:101E2800000E236E3F0E246E8BEC17F01BD021D0D2
:101E380000D04C50030D3A0EF324F66EFE0EF4203B
:101E4800F76E0900F5CF1FF00900F5CF20F00A0062
:101E5800F5CF21F0000E226E000E236E3F0E246E89
:101E68008BEC17F01FC043F020C044F021C045F0B0
:101E780000D012002E6E240E306E1E0E2F6EC8D0AB
:101E88002F50440F236E190E246E020E256E000E7D
:101E9800276E000E266E3050020DF3500E0FDEEC4A
:101EA80024F0440E236E190E246E020E256E000EC9
:101EB800276E000E266E3050020DF3500E0FDEEC2A
:101EC80024F0440E236E190E246E020E256EFF0EAA
:101ED800276EE00E266E0E0EDEEC24F0ADD0440E1A
:101EE800236E190E246E020E256E000E276E000E4C
:101EF800266E0E0EDEEC24F0440E236E190E246EB0
:101F0800020E256EFF0E276EE00E266E30500E0F65
:101F1800DEEC24F091D0440E236E190E246E020ECE
:101F2800256E000E276E000E266E30500E0FDEEC6A
:101F380024F0440E236E190E246E020E256EFF0E39
:101F4800276EE00E266E3050020DF3500E0FDEECB9
:101F580024F072D0440E236E190E246E020E256EE4
:101F6800000E276E000E266E3050020DF3500E0F35
:101F7800DEEC24F02F50440F236E190E246E020E4F
:101F8800256EFF0E276EE00E266E0E0EDEEC24F098
:101F980053D02F50440F236E190E246E020E256E57
:101FA800000E276E000E266E0E0EDEEC24F02F506B
:101FB800440F236E190E246E020E256EFF0E276E37
:101FC800E00E266E30500E0FDEEC24F035D02F5088
:101FD800440F236E190E246E020E256E000E276E16
:101FE800000E266E30500E0FDEEC24F02F50440FFA
:101FF800236E190E246E020E256EFF0E276EE00E5C
:10200800266E3050020DF3500E0FDEEC24F014D083
:102018002E50000AD8B434D7010AD8B460D7030ABE
:10202800D8B479D7010AD8B495D7070AD8B4B1D7A4
:10203800010AD8B4CCD700D012004FC053F0546A6C
:10204800556A4E34533601E354805350586E52C08B
:1020580053F0546A556A5134533601E3548053504F
:10206800576E5850D8B40BD05750585CD8B00ED0D3
:10207800585000085724536E180E536407D050C0A8
:102088004DF051C04EF052C04FF0B8D05750D8B4B0
:102098000BD05850575CD8B00ED057500008582471
:1020A800536E180E536407D04DC04DF04EC04EF01D
:1020B8004FC04FF0A3D0060E566E4FAE02D0568ECC
:1020C80000D052BE568C4E8EFF0E4D16FF0E4E1689
:1020D800000E4F16518EFF0E5016FF0E5116000EB1
:1020E80052165750585CD8B01ED0D890503651363A
:1020F8005236570658505718D8B40FD0560656C0FF
:1021080053F0070E5316D8B408D0EFD706D0D8909E
:102118004F324E324D32582A00D057505818D8B442
:1021280024D0F5D722D05850575CD8B01ED0D890BC
:102138004D364E364F36580658505718D8B40FD02B
:10214800560656C053F0070E5316D8B408D0EFD72A
:1021580006D0D890523251325032572A00D05750B8
:102168005818D8B402D0F5D700D056AE0CD0FF0E10
:102178004D1AFF0E4E1AFF0E4F1A010E4D26000E75
:102188004E22000E4F2256AC0DD0FF0E501AFF0EF5
:10219800511AFF0E521A010E5026000E5122000E3F
:1021A800522200D0000E566E4D5050264E505122ED
:1021B8004F50522252AE0FD0FF0E501AFF0E511A36
:1021C800FF0E521A010E5026000E5122000E522206
:1021D800010E566E00D050C011F051C012F052C01E
:1021E80013F058C014F056C015F012EC1CF011C0D2
:1021F8004DF012C04EF013C04FF000D012002E6EFA
:10220800240E306E1E0E2F6EC5D0440E236E190E8E
:10221800246E020E256E000E276E000E266E3050BC
:102228000E0FDEEC24F0440E236E190E246E020EFF
:10223800256EFF0E276EE00E266E0E0EDEEC24F0E5
:10224800BDD0440E236E190E246E020E256E000EAC
:10225800276E000E266E3050020DF3500E0FDEEC86
:1022680024F0440E236E190E246E020E256EFF0E06
:10227800276EE00E266E30500E0FDEEC24F09ED056
:10228800440E236E190E246E020E256E000E276E64
:10229800000E266E0E0EDEEC24F02F50440F236E37
:1022A800190E246E020E256E000E276E000E266E85
:1022B8000E0EDEEC24F0440E236E190E246E020E70
:1022C800256EFF0E276EE00E266E3050020DF3507D
:1022D8000E0FDEEC24F072D02F50440F236E190E2F
:1022E800246E020E256E000E276E000E266E3050EC
:1022F8000E0FDEEC24F02F50440F236E190E246EBF
:10230800020E256EFF0E276EE00E266E0E0EDEEC18
:1023180024F054D02F50440F236E190E246E020E51
:10232800256E000E276E000E266E3050020DF350FB
:102338000E0FDEEC24F02F50440F236E190E246E7E
:10234800020E256EFF0E276EE00E266E30500E0F21
:10235800DEEC24F033D0440E236E190E246E020EE8
:10236800256E000E276E000E266E0E0EDEEC24F093
:102378002F50440F236E190E246E020E256EFF0E89
:10238800276EE00E266E3050020DF3500E0FDEEC75
:1023980024F014D02E50000AD8B437D7010AD8B484
:1023A80050D7030AD8B46CD7010AD8B495D7070A0E
:1023B800D8B4B0D7010AD8B4CED700D0120020C004
:1023C80024F021C025F0241E251E244A252A010EAA
:1023D80024242A6E000E25202B6E000E276E010E77
:1023E800266E20C024F021C025F0D890243625364A
:1023F800241E251E244A252A24C028F025C029F099
:10240800000E2D6E000E2C6E20C02EF021C02FF075
:102418001E502024186E22C019F023C01AF01C5038
:102428006AEC26F0205000081E24186E22C019F00D
:1024380023C01AF01C506AEC26F01EC018F022C007
:1024480019F023C01AF01C5020246AEC26F01EC094
:1024580018F022C019F023C01AF0205000081C24DC
:102468006AEC26F078D02BBE0BD02E06D8A02F060B
:10247800020E2826000E292228502A2629502B220F
:102488002C4A2D2A020E2626000E272226502A26FE
:1024980027502B221E502E24186E22C019F023C05C
:1024A8001AF01C502C246AEC26F01E502E24186EAC
:1024B80022C019F023C01AF02C5000081C246AEC22
:1024C80026F02E5000081E24186E22C019F023C0D2
:1024D8001AF01C502C246AEC26F02E5000081E24FA
:1024E800186E22C019F023C01AF02C5000081C24C2
:1024F8006AEC26F01E502C24186E22C019F023C056
:102508001AF01C502E246AEC26F01E502C24186E4B
:1025180022C019F023C01AF02E5000081C246AECBF
:1025280026F02C5000081E24186E22C019F023C073
:102538001AF01C502E246AEC26F02C5000081E2499
:10254800186E22C019F023C01AF02E5000081C245F
:102558006AEC26F000D02E502C5C2D50800A246E98
:102568002F50800A2458D8A07ED71200B2C017F086
:10257800186A000E1A6E0A0E196E2DEC1FF017500D
:10258800300F01015F6FB2C03DF03E6A000E406E31
:102598000A0E3F6E29EC21F03D50300F0101606FAB
:1025A800B3C017F0186A000E1A6E0A0E196E2DECD9
:1025B8001FF01750300F0101626FB3C03DF03E6A43
:1025C800000E406E0A0E3F6E29EC21F03D50300F90
:1025D8000101636FB5C017F0186A000E1A6E0A0E73
:1025E800196E2DEC1FF01750300F0101656FB5C043
:1025F8003DF03E6A000E406E0A0E3F6E29EC21F057
:102608003D50300F0101666FB4C017F0186A000E14
:102618001A6E0A0E196E2DEC1FF01750300F0101BB
:10262800566FB4C03DF03E6A000E406E0A0E3F6E13
:1026380029EC21F03D50300F0101576FB0C017F061
:10264800186A000E1A6E0A0E196E2DEC1FF017503C
:10265800300F0101596FB0C03DF03E6A000E406E68
:102668000A0E3F6E29EC21F03D50300F01015A6FE0
:10267800B6C017F0186A000E1A6E0A0E196E2DEC05
:102688001FF01750300F01015C6FB6C03DF03E6A75
:10269800000E406E0A0E3F6E29EC21F03D50300FBF
:1026A80001015D6F340E396E5F0E3A6E010E3B6E9E
:1026B800FF0E3D6EE00E3C6E000E3F6E000E3E6E4D
:1026C800020E406E0F0EC7EC1AF0520E396E560EFF
:1026D8003A6E010E3B6E070E3D6EE00E3C6E000E2C
:1026E8003F6E000E3E6E020E406E0F0EC7EC1AF0E3
:1026F8001200F2920001A451D8B4A8D0CE50CFCF86
:1027080001F0026A01C002F0016A0110606E025015
:10271800616E000ECF6E000ECE6E98D0000ECF6E9A
:10272800000ECE6E9E90900ECD6ECD80000E0001F4
:10273800AA6F000E0001806F000E816F000E826F7D
:10274800000E836F010E0001A46F7ED091D0340E6D
:10275800605C210E6158D8A00AD01D0E605C250E61
:102768006158D8B004D0020E0001A46F2BD0FFEC42
:1027780028F028D027D07CD0A00E605C0F0E6158BE
:10278800D8A00AD0890E605C130E6158D8B004D066
:10279800030E0001A46F58D0FFEC28F055D054D098
:1027A80067D0900E605C010E6158D8A008D0BD0EAD
:1027B800605C020E6158D8B002D0040ED5D7FFEC89
:1027C80028F000D0F19C54D0900E605C010E615846
:1027D800D8A037D0090E605C070E6158D8B031D048
:1027E800D890000180350001806F0001813500011B
:1027F800816F000182350001826F0001833500017D
:10280800836FE80E605C030E6158D8A008D0010EF3
:1028180000018027000E81238223832300D000013A
:10282800AA2B1F0E0001AA65B3D7000E0001986FEE
:10283800010E976F81C0A3F0F298000E0001A46FFB
:10284800A7D7FFEC28F000D0F18C12D00001A451DA
:10285800000AD8B463D7010AD8B479D7030AD8B420
:102868008BD7010AD8B49DD7070AD8B4ADD700D002
:102878001200366E800E3660A6D09F0E2E6401D0F0
:10288800A2D03450D8A403D0010E346E00D01F0E4D
:102898002F6404D07E0E2F6403D000D03F0E2F6E1D
:1028A800000E386E040E386401D08DD0530E2F60A0
:1028B80015D0E00E2F24116E126AFF0E1222000EA0
:1028C800146E050E136EC4EC26F038501126000E57
:1028D8001222370E1124F66EFC0E14D0AD0E2F24E2
:1028E800116E126AFF0E1222000E146E050E136E80
:1028F800C4EC26F038501126000E1222360E112490
:10290800F66EFD0E1220F76E0800F5CF35F000D0F8
:10291800000E376E060E376401D053D035A023D091
:102928003404D8A40CD02E503724186E30C019F0B7
:1029380031C01AF0365038246AEC26F03ED03750B1
:102948003402F3502E24236E34C024F034C025F012
:1029580030C026F031C027F038503402F350362406
:10296800DEEC24F02AD03050321804E1315033180C
:10297800D8B423D03404D8A40CD02E503724186EE1
:1029880032C019F033C01AF0365038246AEC26F0F9
:1029980014D037503402F3502E24236E34C024F060
:1029A80034C025F032C026F033C027F03850340246
:1029B800F3503624DEEC24F000D0372AD890353294
:1029C800A9D7382A6FD71200010EBDEC28F0000EE7
:1029D800186E960E176E8EEC24F0110EBDEC28F0D2
:1029E800010E186EF40E176E8EEC24F0B10EBDECCD
:1029F80028F0010EB5EC28F02C0EB5EC28F02D0EC1
:102A0800B5EC28F0B20EBDEC28F0010EB5EC28F0BC
:102A18002C0EB5EC28F02D0EB5EC28F0B30EBDEC5D
:102A280028F0010EB5EC28F02C0EB5EC28F02D0E90
:102A3800B5EC28F0010EB5EC28F02C0EB5EC28F01A
:102A48002D0EB5EC28F0B40EBDEC28F0070EB5EC51
:102A580028F0C00EBDEC28F0A20EB5EC28F0020E4E
:102A6800B5EC28F0840EB5EC28F0C10EBDEC28F0CA
:102A7800C50EB5EC28F0C20EBDEC28F00A0EB5EC78
:102A880028F0000EB5EC28F0C30EBDEC28F08A0E35
:102A9800B5EC28F02A0EB5EC28F0C40EBDEC28F0F1
:102AA8008A0EB5EC28F0EE0EB5EC28F0C50EBDEC9C
:102AB80028F00E0EB5EC28F0200EBDEC28F0360EEE
:102AC800BDEC28F0C80EB5EC28F03A0EBDEC28F0A5
:102AD800050EB5EC28F0120013C017F0186A196A31
:102AE8001234173601E3188017501F6E1F50D8A4F0
:102AF80002D05DD078D016C017F0186A196A15345C
:102B0800173601E3188017501E6E1E50D8A402D045
:102B18004ED069D0128EFF0E1116FF0E1216000E3F
:102B28001316158EFF0E1416FF0E1516000E161628
:102B3800000E1A6E000E1B6E000E1C6E000E1D6E2F
:102B48007F0E1F5E1E50980F1F5E180E1E6ED890C7
:102B58001A361B361C361D361450115C1550125887
:102B680016501358D8A007D01450115E1550125A99
:102B78001650135A1A80D8901136123613361E2E54
:102B8800E6D700D01FAE10D01F50800A970FD8B0DC
:102B980003D00DD028D000D0D8901D321C321B3263
:102BA8001A321F3EF9D717D0170E1F6411D0000E26
:102BB800116E000E126E000E136E000E146E13D0FE
:102BC80007D0D8901A361B361C361D361F0600D083
:102BD8001F50D8A4F6D71AC011F01BC012F01CC0A1
:102BE80013F01DC014F01200000E256E000E246EA6
:102BF800B4EC27F062C011F063C012F01D0E136E22
:102C0800FF0E146E51EC26F0010E396E62C03AF0D8
:102C180063C03BF0FF0E3D6E3C68000E3F6E000E39
:102C28003E6E010E406E010EC7EC1AF062C011F044
:102C380063C012F07D0E136EFF0E146E51EC26F079
:102C4800100E396E62C03AF063C03BF0F80E3D6E6C
:102C58001F0E3C6E000E3F6E000E3E6E020E406E62
:102C6800040EC7EC1AF062C011F063C012F0A50E92
:102C7800136EFF0E146E51EC26F0280E396E62C0EA
:102C88003AF063C03BF0F80E3D6E000E3C6E000E4D
:102C98003F6E000E3E6E010E406E320EC7EC1AF00B
:102CA800440E236E190E246E020E256EFF0E276E3B
:102CB800E00E266E0E0EDEEC24F062C011F063C04A
:102CC80012F0DF0E136EFF0E146E51EC26F0470E55
:102CD800396E62C03AF063C03BF0000E3D6E1F0EC5
:102CE8003C6E000E3F6E000E3E6E010E406E320EC0
:102CF800C7EC1AF01200000E256E000E246EB4EC1C
:102D080027F062C011F063C012F0300E136EFF0E90
:102D1800146E51EC26F0010E396E62C03AF063C0B1
:102D28003BF0FF0E3D6E3C68000E3F6E000E3E6E9F
:102D3800010E406E010EC7EC1AF062C011F063C0BC
:102D480012F0C80E136EFF0E146E51EC26F00B0E27
:102D5800396E62C03AF063C03BF0F80E3D6E1F0E4C
:102D68003C6E000E3F6E000E3E6E020E406E060E6A
:102D7800C7EC1AF062C011F063C012F0D00E136EE7
:102D8800FF0E146E51EC26F01A0E396E62C03AF03E
:102D980063C03BF0F80E3D6E1F0E3C6E000E3F6E9A
:102DA800000E3E6E020E406E060EC7EC1AF062C0B0
:102DB80011F063C012F0A50E136EFF0E146E51ECE5
:102DC80026F0280E396E62C03AF063C03BF0F80E68
:102DD8003D6E000E3C6E000E3F6E000E3E6E010E04
:102DE800406E320EC7EC1AF0440E236E190E246E94
:102DF800020E256EFF0E276EE00E266E0E0EDEEC1E
:102E080024F01200133414341C6E1C50D8A402D0C1
:102E180061D07CD0163417341B6E1B50D8A402D056
:102E280059D074D0138EFF0E1116FF0E1216FF0E16
:102E38001316000E1416168EFF0E1416FF0E151616
:102E4800FF0E1616000E1716000E176E000E186EDF
:102E5800000E196E000E1A6E7F0E1C5E1B50A00F1E
:102E68001C5E200E1B6E00D0D89017361836193607
:102E78001A361450115C1550125816501358175022
:102E88001458D8A00AD01450115E1550125A165072
:102E9800135A1750145A178000D0D890113612368A
:102EA800133614361B2EE0D700D01CAE10D01C50A1
:102EB800800A9F0FD8B003D00DD028D000D0D8906A
:102EC8001A321932183217321C3EF9D717D01F0E92
:102ED8001C6411D0000E116E000E126E000E136EDF
:102EE800000E146E13D007D0D8901736183619363E
:102EF8001A361C0600D01C50D8A4F6D717C011F0FB
:102F080018C012F019C013F01AC014F0120021C032
:102F180025F0266A276A2034253601E326802550C5
:102F2800286E2850D8A402D00ED06CD024C025F02A
:102F3800266A276A2334253601E3268025502D6E1C
:102F48002D50D8A407D0000E1F6E000E206E000E64
:102F5800216E58D02D507B0F282621C02DF02450EB
:102F68002D1A800E2D16208E238EFF0E2216FF0E90
:102F78002316000E2416000E296E000E2A6E000E6F
:102F88002B6E070E2C6E00D01FA007D022502926CA
:102F980023502A2224502B2200D0D89021322032CC
:102FA8001F32D8902236233624362C2EEDD700D067
:102FB800090E2C6E00D01FA007D0225029262350BE
:102FC8002A2224502B2200D0D890213220321F32BE
:102FD800D8902B322A3229322C2EEDD700D029C096
:102FE80011F02AC012F02BC013F028C014F02DC025
:102FF80015F012EC1CF011C01FF012C020F013C025
:1030080021F000D01200E00EBDEC28F0020EB5EC65
:1030180028F01C0EB5EC28F0070EB5EC28F0120EBF
:10302800B5EC28F0370EB5EC28F0320EB5EC28F0E8
:10303800290EB5EC28F02D0EB5EC28F0290EB5ECCC
:1030480028F0250EB5EC28F02B0EB5EC28F0390E3B
:10305800B5EC28F0000EB5EC28F0010EB5EC28F020
:10306800030EB5EC28F0100EB5EC28F0E10EBDEC1F
:1030780028F0030EB5EC28F01D0EB5EC28F0070E6D
:10308800B5EC28F0060EB5EC28F02E0EB5EC28F0BD
:103098002C0EB5EC28F0290EB5EC28F02D0EB5EC69
:1030A80028F02E0EB5EC28F02E0EB5EC28F0370ED1
:1030B800B5EC28F03F0EB5EC28F0000EB5EC28F082
:1030C800000EB5EC28F0020EB5EC28F0100EB5ECA9
:1030D80028F0130EBDEC28F0000E186E0A0E176EBD
:1030E8008EEC24F0290EBDEC28F0000E186E640E4C
:1030F800176E8EEC24F01200000E256E000E246E62
:10310800B4EC27F062C011F063C012F01D0E136E0C
:10311800FF0E146E51EC26F0010E396E62C03AF0C3
:1031280063C03BF0FF0E3D6E3C68000E3F6E000E24
:103138003E6E010E406E010EC7EC1AF062C011F02F
:1031480063C012F0890E136EFF0E146E51EC26F058
:103158001A0E396E62C03AF063C03BF0070E3D6E3E
:103168003C68000E3F6E000E3E6E020E406E010E71
:10317800C7EC1AF062C011F063C012F0B50E136EFE
:10318800FF0E146E51EC26F0290E396E62C03AF02B
:1031980063C03BF0070E3D6E3C68000E3F6E000EAC
:1031A8003E6E020E406E010EC7EC1AF062C011F0BE
:1031B80063C012F0530E136EFF0E146E51EC26F01E
:1031C8003C0E396E62C03AF063C03BF0FF0E3D6EB4
:1031D800E00E3C6E000E3F6E000E3E6E010E406E1D
:1031E8000F0EC7EC1AF01200940E0001DA6FFF0EF2
:1031F8000001DB6F6EC0DCF00001DD6BAEC0DEF0FD
:103208000001DF6BAFC0E0F00001E16B0EEC00F0F5
:103218006EC017F0186A000E1A6E0A0E196E2DECA1
:103228001FF01750300F01014D6F6EC03DF03E6A20
:10323800000E406E0A0E3F6E29EC21F03D50300F13
:1032480001014E6FAEC017F0186A000E1A6E0A0E12
:10325800196E2DEC1FF01750300F0101506FAEC0E2
:103268003DF03E6A000E406E0A0E3F6E29EC21F0DA
:103278003D50300F0101516FAFC017F0186A000EB2
:103288001A6E0A0E196E2DEC1FF01750300F01013F
:10329800536FAFC03DF03E6A000E406E0A0E3F6E9F
:1032A80029EC21F03D50300F0101546F340E396E76
:1032B8004D0E3A6E010E3B6EFF0E3D6EE00E3C6EFB
:1032C800000E3F6E000E3E6E020E406E0F0EC7ECF3
:1032D8001AF0120000018F5100019011D8A40ED0ED
:1032E8000001870500018811D8A468D03CEC24F0BF
:1032F800000E0001906F010E5FD060D00001875171
:1033080000018811D8A412D065EC24F0000E000149
:103318008E6F000E8D6F000E0001906F000E8F6F84
:10332800070E1EEC26F004EC29F048D081B446D0F4
:10333800000E00018E6F010E8D6F00018D050001DA
:103348008E11D8A43BD0000193511EEC26F0000149
:1033580094BF08D00001945109E1070E0001935D64
:10336800D8B004D00001934B942B06D0000E000176
:10337800946F000E936F00D05EEC28F0000E116E73
:10338800800E126E3F0E136E84C014F085C015F0C7
:1033980086C016F078EC1FF0D8B010D0000E0001EF
:1033A8008E6F000E8D6F070E1EEC26F004EC29F0D0
:1033B800000E0001906F000E8F6F00D0120030C019
:1033C80032F0336A346A2F34323601E333803250B4
:1033D8003C6E3C50D8A402D039D063D0170E326E60
:1033E8002EC033F02FC034F030C035F03228366E9E
:1033F80004D0D890353234323332362EFAD733509F
:10340800376E2F8EFF0E2E16FF0E2F16000E30165B
:103418002E50386E2F50396E30503A6E3B6A8E0EF1
:103428003C5E3CAE10D03C50800A8F0FD8B003D021
:103438000DD037D000D0D8903B323A3239323832BA
:103448003C3EF9D719D0170E3C6411D0000E2E6EF1
:10345800000E2F6E000E306E000E316E22D007D097
:10346800D890383639363A363B363C0600D03C5090
:10347800D8B402D0F5D700D03750D8B409D03B1E05
:103488003A1E391E386C000E39223A223B2200D0EF
:1034980038C02EF039C02FF03AC030F03BC031F0C0
:1034A80000D0120030C034F0356A366A2F34343612
:1034B80001E3358034503B6E3B50D8A402D00ED087
:1034C80061D033C034F0356A366A3234343601E3B9
:1034D800358034503C6E3C50D8A407D0000E2E6E78
:1034E800000E2F6E000E306E4DD0000E386E000E9E
:1034F800396E000E3A6E3C50890F3B5E30C03CF08E
:1035080033503C1A800E3C162F8EFF0E2E16FF0EDF
:103518002F16000E3016328EFF0E3116FF0E3216A1
:10352800000E3316180E376E00D0D890383639365C
:103538003A3631502E5C32502F5833503058D8A07C
:1035480007D031502E5E32502F5A3350305A3880BF
:10355800D8902E362F363036372EE7D700D038C0E1
:1035680011F039C012F03AC013F03BC014F03CC05F
:1035780015F012EC1CF011C02EF012C02FF013C081
:1035880030F000D01200436E43C049F039C048F013
:103598003AC011F03BC012F087EC25F011C044F09E
:1035A80012C045F0000E476E000E466E56D0000160
:1035B800B9510001D8B42CD04050050D4950416E86
:1035C800426AF3504126F450422242BE21D0425072
:1035D80004E1810E415CD8A01BD0000E496E40501A
:1035E800070DF3504824030F486EA00E486403D01B
:1035F800A00E486E00D046503A24D96E47503B2062
:10360800DA6E200EDE18D8B425D002D023D000D030
:1036180048C02EF046503A24D96E47503B20DA6E07
:10362800DF502F6E3CC030F03DC031F03EC032F06C
:103638003FC033F040C034F049503DEC14F04050E6
:10364800060DF3504924496E800E496403D0800E5C
:10365800496E00D0464A472A00D04450465C45503F
:103668004758D8A0A4D71200236E800E236069D0D3
:103678009F0E186401D065D0FF0E1D6EFF0E1E6EE2
:10368800195023C01FF0206A1F26000E20221D504B
:103698001F261E50202220BE0AD0205004E1800E92
:1036A8001F5CD8A004D023500008800F196EFF0EAD
:1036B8001D6EFF0E1E6E1A5018C01FF0206A1F26BE
:1036C800000E20221D501F261E50202220BE0BD087
:1036D800205004E1A00E1F5CD8A005D018500008A7
:1036E800A00F1A6E00D018C014F0235019241D6EB4
:1036F8001D04156E18501A241E6E1E04166E2350D3
:1037080011EC24F01C50216E1BC022F0848082989A
:103718001AC018F01850D8B413D001D011D019C05D
:1037280023F02350D8B40AD001D008D0215041EC5E
:1037380028F0225041EC28F02306F3D71806EAD7E0
:1037480082881200000E0001A66F94EC22F06D50E2
:10375800AFEC26F00001B56F6B50AFEC26F000011E
:10376800B36F6A50AFEC26F00001B26F6750AFEC50
:1037780026F00001B06F6C50AFEC26F00001B46F7A
:103788006F50AFEC26F00001B66FF8EC15F0BAEC0C
:1037980012F0010E0001A26F3CD00DEC20F0E806FB
:1037A800D8A437D0020E696431D0090E69602ED0D2
:1037B8002DEC28F0030E6918D8A403D055EC27F097
:1037C80000D0040E6918D8A403D065EC27F000D007
:1037D800050E6918D8A403D019EC28F000D0060EFD
:1037E8006918D8A403D090EC1DF000D0070E691812
:1037F800D8A403D035EC1DF000D0080E6918D8A461
:1038080003D09DEC28F000D0696803D037EC28F08D
:1038180000D00001A205D8B4C0D712001450D8B403
:1038280005D0115012101310D8A40ED0000E116E2E
:10383800000E126E000E136E53D006D0142AD890C4
:1038480013321232113200D0000E1114166E000E0F
:103858001214176EFE0E1314186E16501710181047
:10386800D8B40ED0EBD70CD0142A010E1126000EB6
:103878001222000E1322D89013321232113200D0C5
:10388800000E1114166E000E1214176EFF0E13148C
:10389800186E165017101810D8B408D0E5D706D0EF
:1038A8001406D89011361236133600D012BE04D042
:1038B800020E1460F5D700D014B002D0129E00D0CA
:1038C800D8901432145013121550D8B402D0138E55
:1038D80000D011C011F012C012F013C013F000D0C4
:1038E8001200680E1A6E070E176E0E0E186E18C0AC
:1038F80014F01A5038EC26F0196E1950010B196E95
:1039080019502509196E18C013F019C014F01A506F
:1039180045EC27F08BEC28F01A501A24A6EC25F079
:103928001750A6EC25F00EEC28F0D8801A34A6EC37
:1039380025F0010E03EC25F0666E010E03EC25F070
:10394800656E010E03EC25F0646E000E03EC25F0A5
:103958000001A96F66507F0B666E65507F0B656E20
:1039680064507F0B646E0001A95180090001A96FA2
:103978008BEC28F01A501A24A6EC25F01750A6EC68
:1039880025F06650A6EC25F06550A6EC25F06450AD
:10399800A6EC25F00001A951A6EC25F082EC28F050
:1039A8001200000E0001A56F010E0001A06FB7EC18
:1039B80024F06650AFEC26F0666E6550AFEC26F04A
:1039C800656E6450AFEC26F0646E66C0AFF065C0FB
:1039D800AEF064C06EF07FEC16F0F8EC18F03CD056
:1039E8000DEC20F0E806D8A437D0020E696431D077
:1039F800090E69602ED02DEC28F0030E6918D8A4A2
:103A080003D075EC27F000D0040E6918D8A403D0B1
:103A180085EC27F000D0050E6918D8A403D0F7EC80
:103A280027F000D0060E6918D8A403D0B7EC23F00D
:103A380000D0070E6918D8A403D089EC23F000D071
:103A4800080E6918D8A403D0ADEC28F000D0696836
:103A580003D037EC28F000D00001A005D8B4C0D7B7
:103A6800120042D00001B22B180E0001B219D8A4DE
:103A780050D0000E0001B26F4CD00001B32B3C0EA9
:103A88000001B319D8A445D0000E0001B36F41D08E
:103A98000001B52B3C0E0001B519D8A43AD0000E90
:103AA8000001B56F36D00001B42B0D0E0001B4191A
:103AB800D8A42FD0010E0001B46F2BD00001B02B79
:103AC800200E0001B019D8A424D0010E0001B06F57
:103AD80020D00001B62B640E0001B619D8A419D065
:103AE800010E0001B66F15D00001A651000AD8B426
:103AF800B9D7010AD8B4C1D7030AD8B4C9D7010ABB
:103B0800D8B4D1D7070AD8B4D9D7010AD8B4E1D7DD
:103B180000D0BAEC12F0120042D00001B251D8A481
:103B280004D0170E0001B26F4FD00001B2074CD07D
:103B38000001B351D8A404D03B0E0001B36F44D0A8
:103B48000001B30741D00001B551D8A404D03B0E01
:103B58000001B56F39D00001B50736D00001B405B2
:103B6800D8A404D00C0E0001B46F2ED00001B40705
:103B78002BD00001B005D8A404D01F0E0001B06FEF
:103B880023D00001B00720D00001B605D8A404D086
:103B9800630E0001B66F18D00001B60715D00001FA
:103BA800A651000AD8B4B9D7010AD8B4C1D7030AB4
:103BB800D8B4C9D7010AD8B4D1D7070AD8B4D9D745
:103BC800010AD8B4E1D700D0BAEC12F01200436E63
:103BD800040ECB6E070ECA6E000E226E800E236E88
:103BE800400E246E4350EBEC26F019C01FF01AC0AB
:103BF80020F01BC021F08BEC17F01FC02EF020C066
:103C08002FF021C030F0000E316EA00E326E410E42
:103C1800336E56EC1AF02EC040F02FC041F030C081
:103C280042F040C02EF041C02FF042C030F0E3EC2B
:103C380019F02EC044F02FC045F043503D6E3E6A47
:103C480044503D5C3E50800A3F6E4550800A3F58C4
:103C5800D8B003D0444A452A00D044C03DF0030EF2
:103C68003D163D38F00B0C09BD6E44C03DF045C013
:103C78003EF03E343E323D323E343E323D323D50DF
:103C8800BE6E1200000E4B6E4850465C4750800ACC
:103C98004A6E4950800A4A58D8A002D0000E31D046
:103CA8004850465C4750800A4A6E4950800A4A5834
:103CB800D8B02FD04650000848244B6E320E4B64C3
:103CC80002D0640E1ED0180E4B6408D0320E4B6022
:103CD80005D04B50020DF3CF68F01BD0090E4B6492
:103CE80012D0190E4B600FD04B50030DF3CF17F0C5
:103CF800F4CF18F0000E1A6E020E196E2DEC1FF09C
:103D08001750686E06D00A0E4B6003D04BC068F09F
:103D180000D06850EBEC1DF068C046F0476A00D050
:103D28001200680E4A6E000E4B6E0001B551E5ECAC
:103D380023F043506D6E0001B351E5EC23F043507E
:103D48006B6E0001B251E5EC23F043506A6E010E30
:103D58000001AC6F0001B051E5EC23F04350676EF1
:103D68000001B451E5EC23F043506C6E0001B651EC
:103D7800E5EC23F043506F6E8BEC28F04A504A2450
:103D8800A6EC25F04B50A6EC25F06D50A6EC25F0DE
:103D98006B50A6EC25F06A50A6EC25F00001AC515A
:103DA800A6EC25F06750A6EC25F06C50A6EC25F0A3
:103DB8006F50A6EC25F082EC28F01200B1C017F085
:103DC800186A000E1A6E640E196E2DEC1FF017504B
:103DD8004A6E000E1A6E0A0E196EB1C017F0186AF4
:103DE8002DEC1FF017C03DF018C03EF0000E406EDD
:103DF8000A0E3F6E29EC21F03D504B6EB1C03DF0EC
:103E08003E6A000E406E0A0E3F6E29EC21F03D50CE
:103E18004C6E4A50300F0101776F4B50300F010143
:103E2800786F4C50300F0101796F4A0E396E770E5A
:103E38003A6E010E3B6E000E3D6E1F0E3C6E000E7C
:103E48003F6E000E3E6E020E406E280EC7EC1AF052
:103E58001200000E1C6E1AAE07D0196C1A1ED8B0CC
:103E68001A2A010E1C6E00D018AE07D0176C181E47
:103E7800D8B0182A010E1C1A00D0000E1E6E000EB3
:103E88001D6E19501A10D8B421D0010E1B6E05D022
:103E9800D89019361A361B2A00D01ABE02D0F8D785
:103EA80000D0D8901D361E361950175C1A50185875
:103EB800D8A006D01950175E1A50185A1D8000D085
:103EC800D8901A3219321B2EECD700D01C50D8B417
:103ED80005D01D6C1E1ED8B01E2A00D01DC017F0BC
:103EE8001EC018F000D0120013AE17D011C017F082
:103EF80012C018F013C019F0171E181E191E172A21
:103F0800000E18221922000E1724116E000E182018
:103F1800126E800E1920136E00D016AE17D014C082
:103F280017F015C018F016C019F0171E181E191E24
:103F3800172A000E18221922000E1724146E000EDC
:103F48001820156E800E1920166E00D0000E111A5A
:103F5800000E121A800E131A000E141A000E151AEB
:103F6800800E161A1450115C15501258165013581A
:103F7800D8B002D0D89002D0D88000D01200010E5C
:103F88000001A16FB7C0B1F080EC18F0E2EC1EF0B0
:103F98003BD0010E0001F06F000E0001F16F0DEC37
:103FA80020F00001F019F111D8A42ED0000E000164
:103FB800986F000E976F040E696423D0090E69602C
:103FC80020D02DEC28F0050E6918D8A403D023ECD6
:103FD80028F000D0060E6918D8A403D0DDEC27F02D
:103FE80000D0070E6918D8A403D0D0EC27F000D071
:103FF800080E6918D8A403D0A5EC28F000D0696889
:1040080003D037EC28F000D00001A105D8B4C1D7FF
:1040180012000001970500019811D8A443D0000EA2
:104028000001986F000E976FF288F19C6968000E86
:104038000001EF6F000EEE6F0001EFBF0AD0000124
:10404800EF5121E1150E0001EE5DD8B01CD001D072
:104058001AD01F0E0001EE25D96E010E0001EF21C6
:10406800DA6E0001A351DE18D8A408D0EEC069F0BA
:10407800000E0001EF6F150EEE6F00D00001EE4B41
:10408800EF2BDAD700D06928D8A40AD0DE0E0001B9
:10409800DA6FFE0E0001DB6F0EEC00F0000E02D0AE
:1040A800010E00D012000600EACF06F0E1CF07F0BB
:1040B800E2CF08F0D9CF09F0DACF0AF0F3CF0BF04E
:1040C800F4CF0CF0F6CF0DF0F7CF0EF0F8CF0FF0DD
:1040D800F5CF10F09EA003D0D3EC28F000D0F2A2C8
:1040E80003D07DEC13F000D0F0A003D0FAEC28F058
:1040F80000D0F0A203D0F5EC28F000D010C0F5FFF6
:104108000FC0F8FF0EC0F7FF0DC0F6FF0CC0F4FF9C
:104118000BC0F3FF0AC0DAFF09C0D9FF08C0E2FFED
:1041280007C0E1FF06C0EAFF05C0E9FF04C0FBFFC6
:1041380003C0FAFF1100000E196E000E1A6E000E71
:104148001B6E000E1C6E1550161017101810D8B4E0
:104158002FD0010E1D6E07D0D8901536163617369B
:1041680018361D2A00D018BE02D0F6D700D0D89035
:1041780019361A361B361C361550115C1650125853
:104188001750135818501458D8A00AD01550115E5B
:104198001650125A1750135A1850145A198000D032
:1041A800D89018321732163215321D2EE0D700D0AB
:1041B80019C011F01AC012F01BC013F01CC014F083
:1041C8001200226E800E22603FD09F0E186401D02C
:1041D8003BD0FF0E1C6EFF0E1D6E195018C01EF04E
:1041E8001F6A1E26000E1F221C501E261D501F224D
:1041F8001FBE0BD01F5004E1A00E1E5CD8A005D036
:1042080018500008A00F196E00D01B50206E1AC05D
:1042180021F018C014F022C015F0185019241C6E93
:104228001C04166E225011EC24F08480829807D06A
:10423800205041EC28F0215041EC28F000D019061C
:104248001928D8A4F5D782881200000E426E3EAE17
:1042580007D03D6C3E1ED8B03E2A010E426E00D0FB
:1042680040AE05D03F6C401ED8B0402A00D03F5029
:104278004010D8B41DD0010E416E05D0D8903F36FD
:104288004036412A00D040BE02D0F8D700D03F5077
:104298003D5C40503E58D8A005D03F503D5E405050
:1042A8003E5A00D0D89040323F32412EF0D700D04D
:1042B8004250D8B405D03D6C3E1ED8B03E2A00D03E
:1042C8003DC03DF03EC03EF000D0120094EC22F01C
:1042D80067C0A9F0680E4A6E070E4B6E6E50E5EC8B
:1042E80023F04350646E0001AE51E5EC23F04350D7
:1042F800656E0001AF51E5EC23F04350666E6650E1
:104308007F0B666E65507F0B656E64507F0B646E25
:104318000001A95180090001A96F8BEC28F04A50CF
:104328004A24A6EC25F04B50A6EC25F06650A6ECE6
:1043380025F06550A6EC25F06450A6EC25F00001A8
:10434800A951A6EC25F082EC28F01200204543453F
:10435800333330314C20466127323220533120002C
:104368000000000000000000000000A262E222023B
:10437800C2E0A8906898B030187A10385A424A5269
:104388000102030405060730303A30303A30300075
:1043980030302F30302F30300030303A30303A3033
:1043A800300030312F30312F30300030303A30305B
:1043B8003A30300030303A30303A303000302E3039
:1043C8003056003037354600D8EC26F011C046F09C
:1043D80012C047F046C019F047C01AF0C5EC25F0E6
:1043E80019C01FF01AC020F01BC021F0000E226E69
:1043F800800E236E400E246E8BEC17F01FC040F029
:1044080020C041F021C042F040C02EF041C02FF042
:1044180042C030F0000E316E7A0E326E440E336EAA
:1044280056EC1AF02EC043F02FC044F030C045F0CF
:1044380043C03DF044C03EF045C03FF000D01200FC
:104448002250231024102510D8B429D0010E266E2E
:1044580007D0D8902236233624362536262A00D08F
:1044680025BE02D0F6D700D022501E5C23501F581C
:104478002450205825502158D8A009D022501E5E1B
:1044880023501F5A2450205A2550215A00D0D89022
:104498002532243223322232262EE6D700D01EC0FF
:1044A8001EF01FC01FF020C020F021C021F0120014
:1044B800136E000EAC6E000EAB6E13A002D0AC886B
:1044C80000D013A203D0AC8CAB8C00D013A402D0C4
:1044D800AC8E00D013A602D0AB8802D0AB8A00D035
:1044E80013B8AC849E9813AA02D0AB8600D013AC44
:1044F80002D09D8A01D09D9A9E9A13AE02D09D88C3
:1045080001D09D9811C0AFFF1250B06EAC8AAB8E2F
:10451800949C948EACB8ACBE02D0948C00D012009F
:10452800680E156E000E146E8BEC28F015501524CD
:10453800A6EC25F01450A6EC25F00EEC28F0D88057
:104548001534A6EC25F0010E03EC25F06D6E010E76
:1045580003EC25F06B6E010E03EC25F06A6E010E7C
:1045680003EC25F00001AC6F010E03EC25F0676E3B
:10457800010E03EC25F06C6E000E03EC25F06F6E57
:1045880082EC28F0120000EE80F0370EEE6AE806A2
:10459800FDE100EE60F0100EEE6AE806FDE1540E53
:1045A800F66E430EF76E000EF86E01EE00F010EE98
:1045B8007CF00900F5CFEEFFE550E150FAE1440E3A
:1045C800F66E4E0EF76E000EF86E00EEB7F010EEB7
:1045D80023F00900F5CFEEFFE550E150FAE1000EB7
:1045E800F86E0001EBEF0CF020BE0AD0B80E1F5C8D
:1045F8000B0E2058D8A004D083501F0BE00922D0FE
:104608001F502010D8A403D083501F0B1BD01FC0ED
:1046180017F020C018F0010E1A6EF40E196E2DEC6A
:104628001FF0340E1724D96E010E1820DA6EDF50F1
:10463800216E050E226ED8902136222EFCD783508B
:104648001F0B2110836E00D012008E0E216E07D032
:10465800D8901C321B321A321932212A00D0000E8F
:1046680019141D6E000E1A141E6E000E1B141F6EF8
:10467800FF0E1C14206E1D501E101F102010D8A4F1
:10468800E7D719C011F01AC012F01BC013F021C0EF
:1046980014F0000E156E12EC1CF011C019F012C0C7
:1046A8001AF013C01BF000D012004BEC28F0CCEC31
:1046B80028F0700ED36E0D0EC16E020E926E070EAC
:1046C800936E010E946E000E956E000E966E000E9F
:1046D800846E000E00019D6FF19E000EB26E030EF7
:1046E800B16EA00E116E860E126E010E136E000EC4
:1046F800146EE6EC28F0A5EC27F010EC27F0DAECC5
:1047080028F04B0E0001B76F12001ED06E2A180E4B
:104718006E18D8A425D0000E6E6E22D00001AE2BE4
:104728003C0E0001AE19D8A41BD0000E0001AE6FDC
:1047380017D00001AF2B3C0E0001AF19D8A410D040
:10474800000E0001AF6F0CD00001A551000AD8B4CB
:10475800DDD7010AD8B4E2D7030AD8B4EAD700D023
:10476800F8EC18F012001ED06E50D8A403D0170E23
:104778006E6E24D06E0622D00001AE51D8A404D0AB
:104788003B0E0001AE6F1AD00001AE0717D0000132
:10479800AF51D8A404D03B0E0001AF6F0FD0000179
:1047A800AF070CD00001A551000AD8B4DDD7010A23
:1047B800D8B4E2D7030AD8B4EAD700D0F8EC18F096
:1047C8001200496E49C017F0186A000E1A6E0A0ED8
:1047D800196E2DEC1FF017C045F018C046F0453A89
:1047E800463AF00E461645500F0B4612F00E451687
:1047F80049C03DF03E6A000E406E0A0E3F6E29EC3D
:1048080021F03D504524476E3E504620486E47C033
:1048180043F048C044F000D01200176E2A0EBDECD9
:1048280028F0000EB5EC28F017500001AB25B5ECC8
:1048380028F0000EB5EC28F015500001AB25B5ECBA
:1048480028F02B0EBDEC28F0000EB5EC28F0145023
:104858000001AD25B5EC28F0000EB5EC28F0165097
:104868000001AD25B5EC28F02C0EBDEC28F01200A7
:10487800680E1F6E0E0E1B6E0F0E1C6E1BC014F002
:104888001F5038EC26F01D6E1D5001091D6E1BC00F
:1048980013F01DC014F01F5045EC27F01CC014F095
:1048A8001F5038EC26F01E6E1E50FE0B1E6E1CC0EC
:1048B80013F01EC014F01F5045EC27F075EC1CF0E7
:1048C8001200680E1F6E0E0E1B6E0F0E1C6E1BC0A4
:1048D80014F01F5038EC26F01D6E1D50FE0B1D6E97
:1048E8001BC013F01DC014F01F5045EC27F01CC06E
:1048F80014F01F5038EC26F01E6E1E50FE0B1E6E74
:104908001CC013F01EC014F01F5045EC27F075ECC6
:104918001CF0120017C011F018C012F0000E146E2F
:104928007D0E136EC4EC26F011C01BF012C01CF0F3
:104938001BC019F01CC01AF0191E1A1E194A1A2A8F
:10494800FF0E19241B6EFF0E1A201C6E030ED56E67
:104958001BC0D6FF1C50D76EF294D58E00D0F2A49F
:10496800FED7D59E1200680E156E070E146E8BECDE
:1049780028F015501524A6EC25F01450A6EC25F0C7
:104988000EEC28F0D8801534A6EC25F0010E03ECC7
:1049980025F0666E010E03EC25F0656E010E03EC42
:1049A80025F0646E000E03EC25F00001A96F82EC7F
:1049B80028F012002B6E2BC02CF02D6A0ED023C0CD
:1049C80018F025C019F026C01AF027C01BF02C508B
:1049D800E5EC20F02C4A2D2A00D024502BC028F0DA
:1049E800296A2826000E292228502C5C2D50800A7E
:1049F8002A6E2950800A2A58D8A0E1D71200116ED1
:104A08000CEC29F0000E126E070E126401D00FD0C4
:104A1800E0EC28F081AA03D0D880133604D01350D4
:104A28001324136E00D008EC29F0122AEDD7115088
:104A3800D8B403D094EC28F003D0EBEC28F000D0E5
:104A4800135000D012005C505D105E10D8B407D02F
:104A5800000E5C1A000E5D1A800E5E1A00D059C056
:104A68004DF05AC04EF05BC04FF05CC050F05DC0D6
:104A780051F05EC052F021EC10F04DC059F04EC01C
:104A88005AF04FC05BF000D01200B2CF17F0186A8E
:104A9800000E1A6E020E196E2DEC1FF017C021F0D1
:104AA80018C022F0000EB26E21C011F022C012F020
:104AB800000E146E3C0E136EC4EC26F011C01FF0ED
:104AC80012C020F000D012002A0EBDEC28F0000E13
:104AD800B5EC28F0000EB5EC28F0000EB5EC28F087
:104AE8007F0EB5EC28F02B0EBDEC28F0000EB5ECCF
:104AF80028F0000EB5EC28F0000EB5EC28F09F0E5B
:104B0800B5EC28F0120011C015F012C016F003D051
:104B1800154A162A00D015C0D9FF16C0DAFFDF5093
:104B2800D8A4F6D711C013F012C014F0131E141E27
:104B3800134A142A15501324116E16501420126E9D
:104B480000D01200116E000E126E070E126401D012
:104B580011D011AE03D00CEC29F003D0F0EC28F002
:104B680000D0E0EC28F008EC29F011501124116E67
:104B7800122AEBD70CEC29F0E0EC28F008EC29F02D
:104B88001200000E1C6E1AAE07D0196C1A1ED8B08F
:104B98001A2A010E1C6E00D019C011F01AC012F0AA
:104BA800136A8E0E146E1CC015F012EC1CF011C0A6
:104BB80019F012C01AF013C01BF000D01200480EF2
:104BC800186EAA0E166E8BEC28F018501824A6EC56
:104BD80025F01650A6EC25F00EEC28F0D8801834F5
:104BE800A6EC25F0000E03EC25F0176E82EC28F0F9
:104BF80017C014F0156A00D012001F6E450E1F640E
:104C080004D08350F00B070912D0090E1F6003D09F
:104C18008350F00B0CD01FC017F0186A000E1A6EE4
:104C28000A0E196E2DEC1FF08350F80B1710836EC7
:104C380000D01200126E1250010D340EF324D96EFA
:104C4800010EF420DA6EDF50116ED8901136D8902C
:104C58001136D890113405D0070E1218D8A403D0F5
:104C6800000E806E00D01200166E8BEC28F01650E5
:104C78001624A6EC25F01450A6EC25F00EEC28F02E
:104C8800D8801634A6EC25F0000E03EC25F0156E3E
:104C980082EC28F0155000D0120011C015F012C097
:104CA80016F005D0154A162A134A142A00D013C044
:104CB800F6FF14C0F7FF15C0D9FF16C0DAFF0800C9
:104CC800F5CFDFFFDF50D8A4EDD712001B6E800EA2
:104CD8001B6013D09F0E186401D00FD018C014F0B9
:104CE8001B28156E1828166E1B5011EC24F01A504C
:104CF800B5EC28F01950B5EC28F012008BC046F03E
:104D08008CC047F0B7C048F0496A46EC1EF04650E0
:104D1800686E6850EBEC1DF000019D05D8A402D028
:104D2800848202D0849200D0120082888490800EFF
:104D3800C76E300EC66EE8EC14F068EC25F007EC90
:104D480018F0360EBDEC28F0C00EB5EC28F0010EB8
:104D58000001A86F1200156E15C011F00F0E111684
:104D680015C012F0123A0F0E121612500A0D1150F9
:104D7800F324136E000EF420146E135000D01200AA
:104D880011501302F3CF15F0F4CF16F0115014029E
:104D9800F350162612501302F350162615C011F0C0
:104DA80016C012F000D01200C28200D0C2B2FED7E4
:104DB800C450146E136AC3501324156E000E1420C9
:104DC800166E15C011F016C012F000D012001C6E3D
:104DD8001C50116E126A136A8E0E146E000E156E38
:104DE80012EC1CF011C019F012C01AF013C01BF01D
:104DF80000D01200115012101310D8B406D0000EB3
:104E0800111A000E121A800E131A11C011F012C0D6
:104E180012F013C013F01200F292F090F092F288A0
:104E2800F086F088F19CF19AF198000ECF6E000E92
:104E3800CE6E9E909D80F28CF28E12004BFF013058
:104E48003735460030303030004F4646003030307D
:104E5800004F4646002B3235002B37370030000014
:104E6800136E000E126E3A0E136006D02F0E1364E6
:104E780003D0010E126E00D012C011F0113000D014
:104E88001200156E8BEC28F015501524A6EC25F0B1
:104E98001350A6EC25F01450A6EC25F082EC28F06F
:104EA80012000001A651D8A404D0050E0001A66F77
:104EB80003D00001A60700D00001A65103EC11F0B1
:104EC80012000001A62B060E0001A619D8A404D0D2
:104ED800000E0001A66F00D00001A6513EEC0FF0B5
:104EE80012000001A551D8A404D0020E0001A56F3C
:104EF80003D00001A50700D00001A55103EC11F073
:104F080012000001A52B030E0001A519D8A404D096
:104F1800000E0001A56F00D00001A5513EEC0FF076
:104F28001200156E8BEC28F015501524A6EC25F010
:104F38001350A6EC25F01450A6EC25F082EC28F0CE
:104F48001200480E166EAC0E136E020E146E16503A
:104F580095EC27F0EE0E136E1650EAEC27F01200CF
:104F6800000E186E800E196EA00E1A6E24C01BF06B
:104F780025C01CF0000E38EC1BF01200000E126E5B
:104F8800000E116E800E125CD8B005D001D003D08F
:104F9800114A122AF7D712000001B12B780E00012E
:104FA800B16504D0780E0001B16F00D0E2EC1EF0BC
:104FB80012000001B107320E0001B16104D0320EB7
:104FC8000001B16F00D0E2EC1EF01200146E8BEC01
:104FD80028F014501424A6EC25F01350A6EC25F064
:104FE80082EC28F012006AEC21F0B7EC24F094EC83
:104FF80022F031EC0BF0000E0001A06F120000014E
:105008009D51D8A403D055EC28F003D0DAEC28F051
:1050180000D0120008EC29F00CEC29F0E0EC28F0A4
:10502800F0EC28F008EC29F0120095EC1EF094EC56
:1050380022F031EC0BF0000E0001A26F1200B1C09B
:10504800B7F094EC22F031EC0BF0000E0001A16FE8
:10505800120070EC28F0C2EC27F004EC29F068503C
:10506800EBEC1DF0120079EC28F0C2EC27F004EC10
:1050780029F06850EBEC1DF01200126E9E96C9CF15
:1050880011F012C0C9FF00D0C7A0FED71200000E51
:10509800126E190E116E3C0E5CEC22F0700ED36E7F
:1050A8001200010E00019D6F6850EBEC1DF0848228
:1050B800848412007C0ECB6E050ECA6E3E0EBB6E4B
:1050C8001C0EBA6E12008292000E186E640E176ED5
:1050D8008EEC24F082821200F90ECB6E050ECA6E99
:1050E8007C0EBB6E3C0EBA6E1200F90ECB6E070E2C
:1050F800CA6E7C0EBB6E3C0EBA6E120008EC29F02C
:10510800F0EC28F0E0EC28F00CEC29F012000CECA4
:1051180029F0E0EC28F0F0EC28F008EC29F0120077
:10512800F0EC28F0E0EC28F008EC29F00CEC29F081
:10513800120094EC22F031EC0BF0000E0001A26F8B
:10514800120094EC22F031EC0BF0000E0001A16F7C
:10515800120094EC22F031EC0BF0000E0001A06F6D
:105168001200136E82988480135041EC28F08288D4
:105178001200136E82988490135041EC28F08288B4
:105188001200116E00D0ACA2FED711C0ADFF120004
:10519800050EC26E0D0EC16EA90EC06E1200000E75
:1051A8000001A46FF19CCD909E901200000E0001AA
:1051B8009D6F8492849412009388060EE82EFED781
:1051C80000D01200E0EC28F00CEC29F01200E0EC22
:1051D80028F008EC29F01200819A939A00D000D0A8
:1051E8001200F092010E00019F6F1200F090010E64
:1051F80000019E6F1200000E0001A46FCD901200F6
:10520800000EBA6E819612008198939800D0120011
:08521800938A00D000D01200BF
:10FC360000000000000000005F0000000700070051
:10FC4600147F147F14242A7F2A1223130864623631
:10FC5600495620500008070300001C2241000041BD
:10FC6600221C002A1C7F1C2A08083E0808008070F7
:10FC7600300008080808080000606000201008042A
:10FC8600023E5149453E00427F400072494949467D
:10FC96002141494D331814127F1027454545393CFB
:10FCA6004A494931412111090736494949364649E8
:10FCB60049291E000014000000403400000008140A
:10FCC6002241141414141400412214080201590983
:10FCD600063E415D594E7C1211127C7F49494936D8
:10FCE6003E414141227F4141413E7F494949417F51
:10FCF600090909013E414151737F0808087F004107
:10FD06007F41002040413F017F081422417F40404F
:10FD160040407F021C027F7F0408107F3E41414124
:10FD26003E7F090909063E4151215E7F0919294690
:10FD3600264949493203017F01033F4040403F1FA6
:10FD46002040201F3F4038403F63140814630304DB
:10FD56007804036159494D43007F4141410204083B
:10FD66001020004141417F0402010204404040400E
:10FD760040000307080020545478407F2844443844
:10FD86003844444428384444287F3854545418008E
:10FD9600087E090218A4A49C787F0804047800440D
:10FDA6007D40002040403D007F1028440000417FF8
:10FDB60040007C047804787C080404783844444481
:10FDC60038FC1824241818242418FC7C0804040879
:10FDD600485454542404043F44243C4040207C1C92
:10FDE6002040201C3C4030403C44281028444C9085
:10FDF60090907C4464544C440008364100000077DF
:10FE06000000004136080002010204020100000061
:10FE16000A00000064000000E8030000102700004C
:10FE2600A086010040420F008096980000E1F5058B
:10FE360000CA9A3B00803FCDCC3DD7233C12833A83
:10FE4600B7D138C62737388635C0D633CC2B327073
:10FE56008930E7DB2EE53C1E42A20D00803F0020E4
:10FE66004100C842007A44401C4650C347247449A6
:10FE760097184BBCBE4C6B6E4E03155079AD60F3B4
:10FE86004971010000001000000000010000001090
:10FE9600000000000100000010000000000100004A
:10FEA6000010253032783A253032783A25303278CB
:10FEB60020253032782F253032782F2530327800C1
:10FEC600616C61726D203D20256420486561746512
:10FED60072203D202564200043616E6E6F7420669B
:10FEE600696E6420627574746F6E200D0A0020546A
:10FEF600656D70203D2025642043203D202564202B
:10FF060046200052504D203D202564202064632069
:10FF16003D2025640D0A00454345333330314C20DE
:10FF26004661273232205331000045434533333092
:10FF3600314C204661273232205331003031323382
:10FF460034353637383961626364656600536574E3
:10FF5600204865617465722054656D700054656D46
:10FF660070657261747572653A0048545220536523
:10FF7600742054656D700054696D65205365747501
:10FF860070000020204865617465720020002578A5
:10FF96003A25783A25780D0A00416C61726D205435
:10FFA600696D6500566F6C74203D20256620002023
:10FFB600205365747570002000416C61726D20538A
:10FFC60057002020416C61726D00202053657475C6
:10FFD6007000485452205357004461746500566FB0
:10FFE6006C74004F4E20004F46460052504D004361
:0AFFF6002F00444300524D000000AC
:020000040020DA
:08000000FFFFFFFFFFFFFFFF00
:020000040030CA
:0E000000FF08191EFF8281FF0FC00FE00F40A6
:00000001FF
